{
  "contractName": "Certi",
  "abi": [
    {
      "inputs": [],
      "stateMutability": "nonpayable",
      "type": "constructor"
    },
    {
      "inputs": [
        {
          "internalType": "string",
          "name": "",
          "type": "string"
        }
      ],
      "name": "certificateDetails",
      "outputs": [
        {
          "internalType": "string",
          "name": "courseName",
          "type": "string"
        },
        {
          "internalType": "string",
          "name": "candidateName",
          "type": "string"
        },
        {
          "internalType": "string",
          "name": "grade",
          "type": "string"
        },
        {
          "internalType": "string",
          "name": "date",
          "type": "string"
        }
      ],
      "stateMutability": "view",
      "type": "function",
      "constant": true
    },
    {
      "inputs": [
        {
          "internalType": "string",
          "name": "_certificateID",
          "type": "string"
        },
        {
          "internalType": "string",
          "name": "_courseName",
          "type": "string"
        },
        {
          "internalType": "string",
          "name": "_candidateName",
          "type": "string"
        },
        {
          "internalType": "string",
          "name": "_grade",
          "type": "string"
        },
        {
          "internalType": "string",
          "name": "_date",
          "type": "string"
        }
      ],
      "name": "newCertificate",
      "outputs": [],
      "stateMutability": "nonpayable",
      "type": "function"
    }
  ],
  "bytecode": "0x608060405234801561001057600080fd5b50336000806101000a81548173ffffffffffffffffffffffffffffffffffffffff021916908373ffffffffffffffffffffffffffffffffffffffff1602179055506109c6806100606000396000f3fe608060405234801561001057600080fd5b50600436106100365760003560e01c80636fe5033c1461003b578063b7b5e1d41461006e575b600080fd5b61005560048036038101906100509190610638565b61008a565b6040516100659493929190610709565b60405180910390f35b6100886004803603810190610083919061076a565b6102f0565b005b6001818051602081018201805184825260208301602085012081835280955050505050506000915090508060000180546100c3906108a0565b80601f01602080910402602001604051908101604052809291908181526020018280546100ef906108a0565b801561013c5780601f106101115761010080835404028352916020019161013c565b820191906000526020600020905b81548152906001019060200180831161011f57829003601f168201915b505050505090806001018054610151906108a0565b80601f016020809104026020016040519081016040528092919081815260200182805461017d906108a0565b80156101ca5780601f1061019f576101008083540402835291602001916101ca565b820191906000526020600020905b8154815290600101906020018083116101ad57829003601f168201915b5050505050908060020180546101df906108a0565b80601f016020809104026020016040519081016040528092919081815260200182805461020b906108a0565b80156102585780601f1061022d57610100808354040283529160200191610258565b820191906000526020600020905b81548152906001019060200180831161023b57829003601f168201915b50505050509080600301805461026d906108a0565b80601f0160208091040260200160405190810160405280929190818152602001828054610299906108a0565b80156102e65780601f106102bb576101008083540402835291602001916102e6565b820191906000526020600020905b8154815290600101906020018083116102c957829003601f168201915b5050505050905084565b60008054906101000a900473ffffffffffffffffffffffffffffffffffffffff1673ffffffffffffffffffffffffffffffffffffffff163373ffffffffffffffffffffffffffffffffffffffff161461037e576040517f08c379a00000000000000000000000000000000000000000000000000000000081526004016103759061091d565b60405180910390fd5b6040518060800160405280858152602001848152602001838152602001828152506001866040516103af9190610979565b908152602001604051809103902060008201518160000190805190602001906103d992919061043b565b5060208201518160010190805190602001906103f692919061043b565b50604082015181600201908051906020019061041392919061043b565b50606082015181600301908051906020019061043092919061043b565b509050505050505050565b828054610447906108a0565b90600052602060002090601f01602090048101928261046957600085556104b0565b82601f1061048257805160ff19168380011785556104b0565b828001600101855582156104b0579182015b828111156104af578251825591602001919060010190610494565b5b5090506104bd91906104c1565b5090565b5b808211156104da5760008160009055506001016104c2565b5090565b6000604051905090565b600080fd5b600080fd5b600080fd5b600080fd5b6000601f19601f8301169050919050565b7f4e487b7100000000000000000000000000000000000000000000000000000000600052604160045260246000fd5b610545826104fc565b810181811067ffffffffffffffff821117156105645761056361050d565b5b80604052505050565b60006105776104de565b9050610583828261053c565b919050565b600067ffffffffffffffff8211156105a3576105a261050d565b5b6105ac826104fc565b9050602081019050919050565b82818337600083830152505050565b60006105db6105d684610588565b61056d565b9050828152602081018484840111156105f7576105f66104f7565b5b6106028482856105b9565b509392505050565b600082601f83011261061f5761061e6104f2565b5b813561062f8482602086016105c8565b91505092915050565b60006020828403121561064e5761064d6104e8565b5b600082013567ffffffffffffffff81111561066c5761066b6104ed565b5b6106788482850161060a565b91505092915050565b600081519050919050565b600082825260208201905092915050565b60005b838110156106bb5780820151818401526020810190506106a0565b838111156106ca576000848401525b50505050565b60006106db82610681565b6106e5818561068c565b93506106f581856020860161069d565b6106fe816104fc565b840191505092915050565b6000608082019050818103600083015261072381876106d0565b9050818103602083015261073781866106d0565b9050818103604083015261074b81856106d0565b9050818103606083015261075f81846106d0565b905095945050505050565b600080600080600060a08688031215610786576107856104e8565b5b600086013567ffffffffffffffff8111156107a4576107a36104ed565b5b6107b08882890161060a565b955050602086013567ffffffffffffffff8111156107d1576107d06104ed565b5b6107dd8882890161060a565b945050604086013567ffffffffffffffff8111156107fe576107fd6104ed565b5b61080a8882890161060a565b935050606086013567ffffffffffffffff81111561082b5761082a6104ed565b5b6108378882890161060a565b925050608086013567ffffffffffffffff811115610858576108576104ed565b5b6108648882890161060a565b9150509295509295909350565b7f4e487b7100000000000000000000000000000000000000000000000000000000600052602260045260246000fd5b600060028204905060018216806108b857607f821691505b6020821081036108cb576108ca610871565b5b50919050565b7f496e737566696369656e742070726976696c6167650000000000000000000000600082015250565b600061090760158361068c565b9150610912826108d1565b602082019050919050565b60006020820190508181036000830152610936816108fa565b9050919050565b600081905092915050565b600061095382610681565b61095d818561093d565b935061096d81856020860161069d565b80840191505092915050565b60006109858284610948565b91508190509291505056fea26469706673582212209da97d40cf80dacbddaab01d502401422a15a8cac531f34f930a03c2d35d06b564736f6c634300080d0033",
  "immutableReferences": {},
  "source": "// SPDX-License-Identifier: MIT\npragma solidity 0.8.13;\n\ncontract Certi {\n    \n  address admin;\n  \n  constructor() {\n    admin = msg.sender;    \n  }\n  \n  modifier onlyAdmin {\n      require(msg.sender == admin, \"Insuficient privilage\");\n      _;\n  }\n  \n  struct certificate {\n      string courseName;\n      string candidateName;\n      string grade;\n      string date;\n  }\n  \n  mapping (string => certificate) public certificateDetails;\n  \n  function newCertificate (\n      string memory _certificateID,\n      string memory _courseName,\n      string memory _candidateName,\n      string memory _grade,\n      string memory _date ) public onlyAdmin {\n          certificateDetails[_certificateID] = certificate(\n                                                    _courseName,\n                                                    _candidateName,\n                                                    _grade,\n                                                    _date);\n      }\n}",
  "sourcePath": "/home/node/lab/Certificate-Dapp-EB/contracts/Certi.sol",
  "compiler": {
    "name": "solc",
    "version": "0.8.13+commit.abaa5c0e.Emscripten.clang"
  },
  "schemaVersion": "3.4.7",
  "updatedAt": "2022-05-14T02:38:07.978Z",
  "networkType": "ethereum",
  "devdoc": {
    "kind": "dev",
    "methods": {},
    "version": 1
  },
  "userdoc": {
    "kind": "user",
    "methods": {},
    "version": 1
  }
}