{
  "contractName": "Certi",
  "abi": [
    {
      "inputs": [],
      "stateMutability": "nonpayable",
      "type": "constructor"
    },
    {
      "inputs": [
        {
          "internalType": "string",
          "name": "",
          "type": "string"
        }
      ],
      "name": "certificateDetails",
      "outputs": [
        {
          "internalType": "string",
          "name": "courseName",
          "type": "string"
        },
        {
          "internalType": "string",
          "name": "candidateName",
          "type": "string"
        },
        {
          "internalType": "string",
          "name": "grade",
          "type": "string"
        },
        {
          "internalType": "string",
          "name": "date",
          "type": "string"
        }
      ],
      "stateMutability": "view",
      "type": "function",
      "constant": true
    },
    {
      "inputs": [
        {
          "internalType": "string",
          "name": "_certificateID",
          "type": "string"
        },
        {
          "internalType": "string",
          "name": "_courseName",
          "type": "string"
        },
        {
          "internalType": "string",
          "name": "_candidateName",
          "type": "string"
        },
        {
          "internalType": "string",
          "name": "_grade",
          "type": "string"
        },
        {
          "internalType": "string",
          "name": "_date",
          "type": "string"
        }
      ],
      "name": "newCertificate",
      "outputs": [],
      "stateMutability": "nonpayable",
      "type": "function"
    }
  ],
  "bytecode": "0x608060405234801561001057600080fd5b50336000806101000a81548173ffffffffffffffffffffffffffffffffffffffff021916908373ffffffffffffffffffffffffffffffffffffffff160217905550610b86806100606000396000f3fe608060405234801561001057600080fd5b50600436106100365760003560e01c80636fe5033c1461003b578063b7b5e1d41461006e575b600080fd5b61005560048036038101906100509190610579565b61008a565b6040516100659493929190610641565b60405180910390f35b610088600480360381019061008391906106a2565b6102f0565b005b6001818051602081018201805184825260208301602085012081835280955050505050506000915090508060000180546100c3906107d8565b80601f01602080910402602001604051908101604052809291908181526020018280546100ef906107d8565b801561013c5780601f106101115761010080835404028352916020019161013c565b820191906000526020600020905b81548152906001019060200180831161011f57829003601f168201915b505050505090806001018054610151906107d8565b80601f016020809104026020016040519081016040528092919081815260200182805461017d906107d8565b80156101ca5780601f1061019f576101008083540402835291602001916101ca565b820191906000526020600020905b8154815290600101906020018083116101ad57829003601f168201915b5050505050908060020180546101df906107d8565b80601f016020809104026020016040519081016040528092919081815260200182805461020b906107d8565b80156102585780601f1061022d57610100808354040283529160200191610258565b820191906000526020600020905b81548152906001019060200180831161023b57829003601f168201915b50505050509080600301805461026d906107d8565b80601f0160208091040260200160405190810160405280929190818152602001828054610299906107d8565b80156102e65780601f106102bb576101008083540402835291602001916102e6565b820191906000526020600020905b8154815290600101906020018083116102c957829003601f168201915b5050505050905084565b60008054906101000a900473ffffffffffffffffffffffffffffffffffffffff1673ffffffffffffffffffffffffffffffffffffffff163373ffffffffffffffffffffffffffffffffffffffff161461037e576040517f08c379a000000000000000000000000000000000000000000000000000000000815260040161037590610855565b60405180910390fd5b6040518060800160405280858152602001848152602001838152602001828152506001866040516103af91906108b1565b908152602001604051809103902060008201518160000190816103d29190610a7e565b5060208201518160010190816103e89190610a7e565b5060408201518160020190816103fe9190610a7e565b5060608201518160030190816104149190610a7e565b509050505050505050565b6000604051905090565b600080fd5b600080fd5b600080fd5b600080fd5b6000601f19601f8301169050919050565b7f4e487b7100000000000000000000000000000000000000000000000000000000600052604160045260246000fd5b6104868261043d565b810181811067ffffffffffffffff821117156104a5576104a461044e565b5b80604052505050565b60006104b861041f565b90506104c4828261047d565b919050565b600067ffffffffffffffff8211156104e4576104e361044e565b5b6104ed8261043d565b9050602081019050919050565b82818337600083830152505050565b600061051c610517846104c9565b6104ae565b90508281526020810184848401111561053857610537610438565b5b6105438482856104fa565b509392505050565b600082601f8301126105605761055f610433565b5b8135610570848260208601610509565b91505092915050565b60006020828403121561058f5761058e610429565b5b600082013567ffffffffffffffff8111156105ad576105ac61042e565b5b6105b98482850161054b565b91505092915050565b600081519050919050565b600082825260208201905092915050565b60005b838110156105fc5780820151818401526020810190506105e1565b60008484015250505050565b6000610613826105c2565b61061d81856105cd565b935061062d8185602086016105de565b6106368161043d565b840191505092915050565b6000608082019050818103600083015261065b8187610608565b9050818103602083015261066f8186610608565b905081810360408301526106838185610608565b905081810360608301526106978184610608565b905095945050505050565b600080600080600060a086880312156106be576106bd610429565b5b600086013567ffffffffffffffff8111156106dc576106db61042e565b5b6106e88882890161054b565b955050602086013567ffffffffffffffff8111156107095761070861042e565b5b6107158882890161054b565b945050604086013567ffffffffffffffff8111156107365761073561042e565b5b6107428882890161054b565b935050606086013567ffffffffffffffff8111156107635761076261042e565b5b61076f8882890161054b565b925050608086013567ffffffffffffffff8111156107905761078f61042e565b5b61079c8882890161054b565b9150509295509295909350565b7f4e487b7100000000000000000000000000000000000000000000000000000000600052602260045260246000fd5b600060028204905060018216806107f057607f821691505b602082108103610803576108026107a9565b5b50919050565b7f496e73756666696369656e742070726976696c65676500000000000000000000600082015250565b600061083f6016836105cd565b915061084a82610809565b602082019050919050565b6000602082019050818103600083015261086e81610832565b9050919050565b600081905092915050565b600061088b826105c2565b6108958185610875565b93506108a58185602086016105de565b80840191505092915050565b60006108bd8284610880565b915081905092915050565b60008190508160005260206000209050919050565b60006020601f8301049050919050565b600082821b905092915050565b60006008830261092a7fffffffffffffffffffffffffffffffffffffffffffffffffffffffffffffffff826108ed565b61093486836108ed565b95508019841693508086168417925050509392505050565b6000819050919050565b6000819050919050565b600061097b6109766109718461094c565b610956565b61094c565b9050919050565b6000819050919050565b61099583610960565b6109a96109a182610982565b8484546108fa565b825550505050565b600090565b6109be6109b1565b6109c981848461098c565b505050565b5b818110156109ed576109e26000826109b6565b6001810190506109cf565b5050565b601f821115610a3257610a03816108c8565b610a0c846108dd565b81016020851015610a1b578190505b610a2f610a27856108dd565b8301826109ce565b50505b505050565b600082821c905092915050565b6000610a5560001984600802610a37565b1980831691505092915050565b6000610a6e8383610a44565b9150826002028217905092915050565b610a87826105c2565b67ffffffffffffffff811115610aa057610a9f61044e565b5b610aaa82546107d8565b610ab58282856109f1565b600060209050601f831160018114610ae85760008415610ad6578287015190505b610ae08582610a62565b865550610b48565b601f198416610af6866108c8565b60005b82811015610b1e57848901518255600182019150602085019450602081019050610af9565b86831015610b3b5784890151610b37601f891682610a44565b8355505b6001600288020188555050505b50505050505056fea2646970667358221220baec031341288f0f0ac2549c8ffd7db5d185a60f8bf55a8baaf0987f76e63e0964736f6c63430008110033",
  "immutableReferences": {},
  "source": "// SPDX-License-Identifier: MIT\npragma solidity 0.8.17;\n\ncontract Certi {\n    \n  address admin;\n  \n  constructor() {\n    admin = msg.sender;    \n  }\n  \n  modifier onlyAdmin {\n      require(msg.sender == admin, \"Insufficient privilege\");\n      _;\n  }\n  \n  struct certificate {\n      string courseName;\n      string candidateName;\n      string grade;\n      string date;\n  }\n  \n  mapping (string => certificate) public certificateDetails;\n  \n  function newCertificate (\n      string memory _certificateID,\n      string memory _courseName,\n      string memory _candidateName,\n      string memory _grade,\n      string memory _date ) public onlyAdmin {\n          certificateDetails[_certificateID] = certificate(\n                                                    _courseName,\n                                                    _candidateName,\n                                                    _grade,\n                                                    _date);\n      }\n}",
  "sourcePath": "/home/seraph/Documents/ced/Certificate-Dapp-EB/contracts/Certi.sol",
  "compiler": {
    "name": "solc",
    "version": "0.8.17+commit.8df45f5f.Emscripten.clang"
  },
  "schemaVersion": "3.4.10",
  "updatedAt": "2022-10-15T05:03:16.714Z",
  "networkType": "ethereum",
  "devdoc": {
    "kind": "dev",
    "methods": {},
    "version": 1
  },
  "userdoc": {
    "kind": "user",
    "methods": {},
    "version": 1
  }
}